:100000000C9462000C948A000C948A000C948A0070
:100010000C948A000C948A000C948A000C948A0038
:100020000C948A000C948A000C948A000C948A0028
:100030000C948A000C948A000C948A000C948A0018
:100040000C94AD030C948A000C947B030C94550320
:100050000C948A000C948A000C948A000C948A00F8
:100060000C948A000C948A000000000023002600F3
:10007000290000000008000201000003040700003E
:1000800000000000000000000000250028002B00F8
:1000900000000000240027002A00040404040404D3
:1000A0000404020202020202030303030303010227
:1000B00004081020408001020408102001020408F6
:1000C0001020F70311241FBECFEFD8E0DEBFCDBF55
:1000D00011E0A0E0B1E0ECE9F1E102C005900D9281
:1000E000A03BB107D9F722E0A0EBB1E001C01D921F
:1000F000A736B207E1F710E0C2E6D0E004C02197CE
:10010000FE010E94A107C136D107C9F70E9436043B
:100110000C94CC080C940000AF92BF92CF92DF9267
:10012000EF92FF920F931F93CF93DF936C017B01AC
:100130008B01040F151FEB015E01AE18BF08C0173D
:10014000D10759F06991D601ED91FC910190F081B0
:10015000E02DC6010995892B79F7C501DF91CF9173
:100160001F910F91FF90EF90DF90CF90BF90AF90D5
:100170000895FC01538D448D252F30E0842F90E0AD
:10018000821B930B541710F0CF9608950197089592
:10019000FC01918D828D981761F0A28DAE0FBF2F5B
:1001A000B11D5D968C91928D9F5F9F73928F90E0B1
:1001B00008958FEF9FEF0895FC01918D828D981720
:1001C00031F0828DE80FF11D858D90E008958FEF5D
:1001D0009FEF0895FC01918D228D892F90E0805C26
:1001E0009F4F821B91098F739927089589EB91E0A6
:1001F0000E94EA0021E0892B09F420E0822F089573
:1002000080E090E0892B29F00E94F60081110C9487
:1002100000000895FC01A48DA80FB92FB11DA35AA9
:10022000BF4F2C91848D90E001968F739927848F16
:10023000A689B7892C93A089B1898C918370806439
:100240008C93938D848D981306C00288F389E02DDA
:1002500080818F7D80830895EF92FF920F931F938B
:10026000CF93DF93EC0181E0888F9B8D8C8D981369
:100270001AC0E889F989808185FF15C09FB7F89475
:10028000EE89FF896083E889F989808183708064C1
:1002900080839FBF81E090E0DF91CF911F910F910C
:1002A000FF90EF900895F62E0B8D10E00F5F1F4F1B
:1002B0000F731127E02E8C8D8E110CC00FB607FC2A
:1002C000FACFE889F989808185FFF5CFCE010E94B8
:1002D0000A01F1CFEB8DEC0FFD2FF11DE35AFF4F1B
:1002E000F0829FB7F8940B8FEA89FB898081806246
:1002F000CFCFCF93DF93EC01888D8823B9F0AA8903
:10030000BB89E889F9898C9185FD03C0808186FDD0
:100310000DC00FB607FCF7CF8C9185FFF2CF80811F
:1003200085FFEDCFCE010E940A01E9CFDF91CF9189
:100330000895833081F028F4813099F08230A9F05B
:1003400008958730A9F08830C9F08430B1F48091E5
:1003500080008F7D03C0809180008F778093800024
:10036000089584B58F7784BD089584B58F7DFBCFC4
:100370008091B0008F778093B00008958091B00095
:100380008F7DF9CFCF93DF93282F30E0F901EE581E
:10039000FF4F8491F901E255FF4FD491F901E656E0
:1003A000FF4FC491CC23A1F081110E949901EC2F41
:1003B000F0E0EE0FFF1FE859FF4FA591B491EC91CB
:1003C000ED2381E090E009F480E0DF91CF91089582
:1003D00080E090E0FACF1F93CF93DF93282F30E097
:1003E000F901EE58FF4F8491F901E255FF4FD49186
:1003F000F901E656FF4FC491CC23A9F0162F8111C5
:100400000E949901EC2FF0E0EE0FFF1FEA57FF4F1B
:10041000A591B4918FB7F894EC91111108C0D095C3
:10042000DE23DC938FBFDF91CF911F910895DE2BE8
:10043000F8CF3FB7F8948091B5019091B601A091A3
:10044000B701B091B80126B5A89B05C02F3F19F0A0
:100450000196A11DB11D3FBFBA2FA92F982F882744
:10046000BC01CD01620F711D811D911D42E0660F1F
:10047000771F881F991F4A95D1F708958F929F92F1
:10048000AF92BF92CF92DF92EF92FF926B017C010D
:100490000E9419024B015C01C114D104E104F10472
:1004A000B9F00E941902681979098A099B09683E06
:1004B00073408105910580F321E0C21AD108E1085B
:1004C000F10888EE880E83E0981EA11CB11CE4CFD1
:1004D000FF90EF90DF90CF90BF90AF909F908F9064
:1004E00008950895FC0101900020E9F73197AF01CC
:1004F000481B590BBC0189EB91E00C948C008F9246
:100500009F92AF92BF920F931F93CF93DF93CDB77C
:10051000DEB7A1970FB6F894DEBF0FBECDBF19A20C
:10052000423008F44AE08E010F5D1F4F842E912C5B
:10053000B12CA12CA50194010E946007E62FB901FE
:10054000CA01EA30F4F4E05DD801EE938D01232B6B
:10055000242B252B79F790E080E0109719F0CD013E
:100560000E947202A1960FB6F894DEBF0FBECDBFF7
:10057000DF91CF911F910F91BF90AF909F908F907F
:100580000895E95CE1CFCF93DF930E947202EC0102
:1005900080E291E00E9472028C0F9D1FDF91CF914B
:1005A0000895FF920F931F93CF93DF93F82E062F9A
:1005B000C7E0D0E010E061E0802F0E94EB018F2DBA
:1005C0000E94C2010C2E01C0880F0A94EAF7182B72
:1005D00060E0802F0E94EB01219768F7812FDF9167
:1005E000CF911F910F91FF900895EF92FF920F937B
:1005F0001F93CF93DF93809159020E94C201892BF0
:1006000031F060E070E0CB010E943E02F4CFDFB732
:10061000F89460915802809159020E94D102082FEB
:1006200060915802809159020E94D102C82F6091B6
:100630005802809159020E94D102182FF12CE12C0E
:1006400080915A028E151F0479F070F061E080915C
:1006500058020E94EB0160E0809158020E94EB0179
:100660008FEFE81AF80AECCFDFBF6C2F70E090E054
:1006700080E0982F872F762F6627802B612B000F25
:10068000000B10E030E020E0302F22271127002758
:10069000602B712B822B932BDF91CF911F910F91A8
:1006A000FF90EF9008950C9443081F920F920FB69D
:1006B0000F9211242F933F934F935F936F937F93E8
:1006C0008F939F93AF93BF93EF93FF9389EB91E049
:1006D0000E940A01FF91EF91BF91AF919F918F917D
:1006E0007F916F915F914F913F912F910F900FBE2E
:1006F0000F901F9018951F920F920FB60F92112412
:100700002F938F939F93EF93FF93E091C901F09103
:10071000CA018081E091CF01F091D00182FD1BC020
:1007200090818091D2018F5F8F732091D3018217C6
:1007300041F0E091D201F0E0E754FE4F958F8093B5
:10074000D201FF91EF919F918F912F910F900FBE4A
:100750000F901F9018958081F4CF1F920F920FB6C3
:100760000F9211242F933F938F939F93AF93BF9337
:100770008091B1019091B201A091B301B091B40107
:100780003091B00123E0230F2D3758F50196A11DBC
:10079000B11D2093B0018093B1019093B201A09359
:1007A000B301B093B4018091B5019091B601A091CD
:1007B000B701B091B8010196A11DB11D8093B5019B
:1007C0009093B601A093B701B093B801BF91AF91D8
:1007D0009F918F913F912F910F900FBE0F901F907F
:1007E000189526E8230F0296A11DB11DD2CFE9EB83
:1007F000F1E01382128288EE93E0A0E0B0E08483FF
:100800009583A683B7838AE091E09183808385EC0A
:1008100090E09587848784EC90E09787868780ECCA
:1008200090E0918B808B81EC90E0938B828B82ECBB
:1008300090E0958B848B86EC90E0978B868B118E65
:10084000128E138E148EE6E5F2E08CE191E0918336
:100850008083158216821782108680E090E0A0E8DF
:10086000BFE381879287A387B4870895789484B57E
:10087000826084BD84B5816084BD85B5826085BD9C
:1008800085B5816085BD80916E00816080936E002A
:10089000109281008091810082608093810080911C
:1008A00081008160809381008091800081608093CD
:1008B00080008091B10084608093B1008091B0008D
:1008C00081608093B00080917A00846080937A0088
:1008D00080917A00826080937A0080917A008160B2
:1008E00080937A0080917A00806880937A001092D9
:1008F000C100E091C901F091CA0182E08083E091DA
:10090000C501F091C6011082E091C701F091C801C4
:100910008FEC80831092D101E091CD01F091CE0156
:1009200086E08083E091CB01F091CC0180818061F1
:100930008083E091CB01F091CC018081886080833D
:10094000E091CB01F091CC01808180688083E091BF
:10095000CB01F091CC0180818F7D80838EE08093EC
:1009600058028FE080935902ECEBF0E02491E8EA22
:10097000F0E08491882399F090E0880F991FFC01A2
:10098000E057FF4FA591B491FC01EA57FF4F8591C5
:1009900094918FB7F894EC91E22BEC938FBF8091F8
:1009A000590290E0FC01E255FF4F249186569F4F7B
:1009B000FC0184918823C1F090E0880F991FFC010D
:1009C000E057FF4FC591D491FC01EA57FF4FA59125
:1009D000B4919FB7F8943881822F809583238883C0
:1009E000EC91E22BEC939FBF81E080935A0283E26B
:1009F00091E00E9472020E94F5026B017C014AE0C4
:100A0000F7FE0DC06DE289EB91E00E942C01662794
:100A10007727CB016C197D098E099F094AE00E9456
:100A20007F0280E291E00E9472028FE391E00E94D7
:100A3000C30288E691E00E94C30280E090E0A0E853
:100A4000BFE380935F0290936002A0936102B09332
:100A50006202C4E1C12CD12C76010E94F502C60EBF
:100A6000D71EE81EF91E60E070E0CB010E943E0236
:100A7000C15099F7C701B60124E130E040E050E0F1
:100A80000E948207CA01B9010E94A6060E946E0652
:100A900060935B0270935C0280935D0290935E02B0
:100AA00086E791E00E94C302C0E0D0E080E991E0D7
:100AB0000E9472021AE0C12CD12C76010E94F5022C
:100AC000C60ED71EE81EF91E60E070E0CB010E9442
:100AD0003E02115099F7C701B6012AE030E040E02C
:100AE00050E00E94820780915B0290915C02A0918D
:100AF0005D02B0915E0279018A01E81AF90A0A0BD7
:100B00001B0BC801B7010E94A6066B017C014B01BB
:100B10005C01AC019B010E945B078823C9F084EA59
:100B200091E00E94720280E291E00E94720264E60B
:100B300070E080E090E00E943E02209709F4B6CF7A
:100B40000E94F600882309F4B1CF0E940000AECFC6
:100B500026013701E89477F82FEF3FEF4FE75FE783
:100B6000C301B2010E945B0781110DC02FEF3FEF5F
:100B70004FE75FE7C301B2010E94690618161CF433
:100B800088EA91E0CECF2FEF3FEF4FE75FE4C70158
:100B9000B6010E94560718161CF48CEA91E0C1CFEA
:100BA0002FEF3FEF4FE75FECC701B6010E946906E8
:100BB00087FDF3CF20E030E0A901C701B6010E9414
:100BC000690687FF0BC06DE289EB91E00E942C0162
:100BD00046015701B7FAB094B7F8B09420E030E07E
:100BE00040E05FE3C501B4010E94FD050E94750667
:100BF0004AE00E947F0297CF5058BB27AA270E9445
:100C000014060C941C070E940E0738F00E9415076A
:100C100020F039F49F3F19F426F40C940B070EF4DE
:100C2000E095E7FB0C940507E92F0E942D0758F388
:100C3000BA17620773078407950720F079F4A6F5C1
:100C40000C944F070EF4E0950B2EBA2FA02D0B013C
:100C5000B90190010C01CA01A0011124FF27591B01
:100C600099F0593F50F4503E68F11A16F040A22F07
:100C7000232F342F4427585FF3CF46953795279578
:100C8000A795F0405395C9F77EF41F16BA0B620B77
:100C9000730B840BBAF09150A1F0FF0FBB1F661FBE
:100CA000771F881FC2F70EC0BA0F621F731F841F01
:100CB00048F4879577956795B795F7959E3F08F027
:100CC000B0CF9395880F08F09927EE0F97958795E9
:100CD00008950E94E10608F481E008950E947506D7
:100CE0006894B1110C94500708950E94350788F05C
:100CF0009F5798F0B92F9927B751B0F0E1F0660FE0
:100D0000771F881F991F1AF0BA95C9F714C0B13020
:100D100091F00E944F07B1E008950C944F07672FA0
:100D2000782F8827B85F39F0B93FCCF3869577954F
:100D30006795B395D9F73EF4909580957095619538
:100D40007F4F8F4F9F4F0895E89409C097FB3EF463
:100D500090958095709561957F4F8F4F9F4F992308
:100D6000A9F0F92F96E9BB279395F6958795779586
:100D70006795B795F111F8CFFAF4BB0F11F460FF46
:100D80001BC06F5F7F4F8F4F9F4F16C0882311F09E
:100D900096E911C0772321F09EE8872F762F05C0B2
:100DA000662371F096E8862F70E060E02AF09A954D
:100DB000660F771F881FDAF7880F9695879597F942
:100DC0000895990F0008550FAA0BE0E8FEEF1616DC
:100DD0001706E807F907C0F012161306E407F5072F
:100DE00098F0621B730B840B950B39F40A2661F0A3
:100DF000232B242B252B21F408950A2609F4A14046
:100E0000A6958FEF811D811D089597F99F6780E852
:100E100070E060E008959FEF80EC089500240A944C
:100E20001616170618060906089500240A941216C5
:100E30001306140605060895092E0394000C11F4F8
:100E4000882352F0BB0F40F4BF2B11F460FF04C0A5
:100E50006F5F7F4F8F4F9F4F089557FD9058440FFE
:100E6000551F59F05F3F71F04795880F97FB991F09
:100E700061F09F3F79F087950895121613061406C6
:100E8000551FF2CF4695F1DF08C016161706180653
:100E9000991FF1CF86957105610508940895E8942E
:100EA000BB2766277727CB0197F908950E94E106B3
:100EB00008F48FEF08950E94E106880B990B0895BE
:100EC000A1E21A2EAA1BBB1BFD010DC0AA1FBB1F4E
:100ED000EE1FFF1FA217B307E407F50720F0A21BC0
:100EE000B30BE40BF50B661F771F881F991F1A942D
:100EF00069F760957095809590959B01AC01BD0157
:100F0000CF010895052E97FB1EF400940E949907C7
:100F100057FD07D00E94600707FC03D04EF40C94E5
:100F2000990750954095309521953F4F4F4F5F4F12
:100F3000089590958095709561957F4F8F4F9F4F45
:100F40000895EE0FFF1F0590F491E02D09940F9383
:100F50001F93CF93DF938230910510F482E090E0ED
:100F6000E0916502F091660230E020E0B0E0A0E0A0
:100F7000309799F42115310509F44AC0281B390B23
:100F800024303105D8F58A819B816115710589F17D
:100F9000FB0193838283FE0111C040815181028154
:100FA000138148175907E0F04817590799F410972B
:100FB00061F012960C93129713961C933296CF0100
:100FC000DF91CF911F910F910895009365021093C7
:100FD0006602F4CF2115310551F04217530738F05E
:100FE000A901DB019A01BD01DF01F801C1CFEF01C9
:100FF000F9CF9093660280936502CDCFFE01E20F98
:10100000F31F819391932250310939832883D7CFDD
:101010002091630230916402232B41F4209102015C
:101020003091030130936402209363022091000108
:10103000309101012115310541F42DB73EB74091A2
:10104000040150910501241B350BE0916302F091DE
:101050006402E217F307A0F42E1B3F0B2817390791
:1010600078F0AC014E5F5F4F2417350748F04E0F04
:101070005F1F5093640240936302819391939FCFCB
:10108000F0E0E0E09CCFCF93DF930097E9F0FC0124
:10109000329713821282A0916502B0916602ED012F
:1010A00030E020E01097A1F420813181820F931F5E
:1010B00020916302309164022817390709F061C05A
:1010C000F0936402E0936302DF91CF910895EA0107
:1010D000CE17DF07E8F54A815B819E014115510576
:1010E000B1F7E901FB83EA8349915991C40FD51FF8
:1010F000EC17FD0761F4808191810296840F951FA2
:10110000E90199838883828193819B838A83F0E0BC
:10111000E0E012968D919C9113970097B9F52D916F
:101120003C911197CD010296820F931F209163028B
:10113000309164022817390739F6309751F510922B
:10114000660210926502B0936402A0936302BCCF62
:10115000D383C28340815181840F951FC817D9075B
:1011600061F44E5F5F4F88819981480F591F518309
:1011700040838A819B81938382832115310509F005
:10118000B0CFF0936602E09365029ECFFD01DC01D3
:0C119000C0CF13821282D7CFF894FFCF9B
:10119C00000067028000000000002C018C00B900E8
:1011AC007901EA00C800DC00000000007102530362
:1011BC000D0A004C6563747572612064656C207651
:1011CC00616C6F722064656C204144433A74004E2C
:1011DC006F20706F6E6761206E696E67C3BA6E2088
:1011EC006F626A65746F20736F627265206C612028
:1011FC0062616C616E7A6100446573746172616ED8
:10120C00646F2E2E2E00436F6C6F71756520756E9A
:10121C00207065736F20636F6E6F6369646F3A0043
:10122C0056616C6F72206465206C656374757261B5
:10123C003A2074006E616E00696E66006F7666000F
:00000001FF
